:1000000000000320D1010000AD5B0000655B000033
:10001000655B0000655B0000655B0000655B0000E0
:10002000655B0000655B0000655B0000AD5B000088
:10003000AD5B0000655B0000F1720000F57300002D
:10004000AD5B0000AD5B0000AD5B0000AD5B000090
:10005000AD5B0000AD5B0000AD5B0000AD5B000080
:10006000AD5B0000AD5B0000AD5B0000AD5B000070
:10007000AD5B0000AD5B0000AD5B0000AD5B000060
:10008000AD5B0000AD5B0000AD5B0000AD5B000050
:10009000AD5B0000AD5B0000AD5B0000AD5B000040
:1000A000FD53000009540000AD5B0000AD5B000093
:1000B000AD5B0000AD5B0000AD5B0000857800002B
:1000C000AD5B0000B1790000AD5B0000DD7A00009F
:1000D000AD5B0000D57B0000AD5B0000AD5B0000B8
:1000E000AD5B0000AD5B0000AD5B0000AD5B0000F0
:1000F000AD5B0000AD5B0000AD5B0000AD5B0000E0
:10010000AD5B0000AD5B0000AD5B0000AD5B0000CF
:10011000AD5B000035610000AD5B0000AD5B000031
:10012000AD5B0000AD5B0000AD5B0000AD5B0000AF
:10013000AD5B0000AD5B0000AD5B0000AD5B00009F
:10014000A5700000AD5B0000CD7C0000AD5B000041
:10015000AD5B0000AD5B0000AD5B0000AD5B00007F
:10016000AD5B0000AD5B000015540000AD5B00000E
:10017000AD5B0000AD5B0000AD5B0000AD5B00005F
:10018000AD5B0000AD5B0000AD5B0000AD5B00004F
:10019000AD5B0000AD5B0000C57D0000AD5B000005
:1001A000AD5B0000AD5B0000AD5B0000AD5B00002F
:1001B000AD5B0000AD5B0000AD5B0000AD5B00001F
:1001C000AD5B0000AD5B0000AD5B0000AD5B00000F
:1001D0005A4B4CF2205210B51A804DF628121A8054
:1001E00000BF00BF05F0E6FC554B4FF030621A60CF
:1001F000544A9A60544ADA60544B4FF470021A60C1
:10020000534B544A1A60544A136813F4807304D150
:1002100052490B604FF4A8531360514B1A781107E1
:1002200003D51A7842F008021A704E4B4E49AA22A2
:100230001A704E4A4E4B8B4204D252F8040F43F8C8
:10024000040BF8E74B4B4C4900228B4202D243F897
:10025000042BFAE749494A4A002352F8230041F89F
:1002600023000133742BF8D1464B474A802103F811
:10027000011B9342FBD1454B404A1A60444B8A22F2
:100280001A70A3F5805324225A70A0221A709A790A
:100290009207FCD59A79D406FCD43E4A937903F0B0
:1002A0000C03082B3B4BF9D101221A714E225A71D3
:1002B0009A799006FCD5374A9179364B4906FBD599
:1002C000354A4FF0827111600921516020221A7065
:1002D0009A7902F00C020C2AFAD1304B304A1A609B
:1002E000304B314A1A6000225A60072243F8042C2E
:1002F0002E4AC3F80C2D62B605F076FD174B1B682D
:10030000DA0705D52A4805F0E1FC2A4B2A4A1A608B
:100310002A4B1B785B0609D5264C274B22689A424C
:1003200004D1234805F0D2FC0023236008F0A0FA92
:1003300005F046FC07F0F0F9FEE700BF0E2005408F
:1003400030800440823F04000100002B88ED00E073
:10035000002008E00300008510D0034014D00340C3
:1003600002D0074000E00740CC1FFF1FE49B0000C5
:100370003015FF1FCC1FFF1F604AFF1F0010FF1F1B
:100380000000000000E400E064E400E008ED00E0AC
:100390000050064000400640448004400480044071
:1003A000C010050014E000E0BFD4010000002020D0
:1003B000F0538D5B1CE00340A5C3945A00F0074046
:1003C000FFFFFFFFFFFFFFFFFFFFFFFFFFFFFFFF3D
:1003D000FFFFFFFFFFFFFFFFFFFFFFFFFFFFFFFF2D
:1003E000FFFFFFFFFFFFFFFFFFFFFFFFFFFFFFFF1D
:1003F000FFFFFFFFFFFFFFFFFFFFFFFFFFFFFFFF0D
:10040000FFFFFFFFFFFFFFFFFFFFFFFFDEF9FFFF23
:1004100010B5054C237833B9044B13B10448AFF33E
:1004200000800123237010BDCC1FFF1F00000000BF
:10043000E89B0000084B10B51BB108490848AFF312
:1004400000800848036803B910BD074B002BFBD0A0
:10045000BDE81040184700BF00000000D01FFF1F7C
:10046000E89B0000CC1FFF1F0000000040697047A0
:10047000002070474268017B13780B43137070476C
:100480004268017B137823EA01031370704700BFB1
:1004900010B5044606F0BEFD204610BD10B5044B55
:1004A000044640F8183B02F01BFE204610BD00BF7A
:1004B0001897000008B50121072005F01FFC012155
:1004C0000E2005F01BFC0B4A1368D90405D40A4919
:1004D0000A4843F480531360C860074A136843F026
:1004E00000431360136823F4804323F00103136077
:1004F00008BD00BF3C80044000C00240010001383C
:10050000F0B58BB0002305688DF804308DF8053008
:100510008DF806302E68374A8DF8083096428DF8EF
:1005200009308DF80A305FD1827C04910446012A9B
:1005300001A805918DF81E308DF81F308DF8203000
:10054000039015D08DF81D308DF81C308DF81B30C0
:100550008DF81A308DF819308DF818300023AA69FB
:100560008DF821302046099303A990470BB0F0BDC8
:10057000214A1378013303F0070313F0010F14BF6E
:100580008021002113709A0744BF41F04001C9B295
:100590005B0748BF41F0200110310022C9B20DF1C4
:1005A0001B030DF11E074FF4807EAAB19EFBF2F2F1
:1005B000D2B2501CC0B200FB01152D121870EEB261
:1005C00005B1013E03F8036C00B11A7001339F427C
:1005D00008D0DA78002AE9D11A7003F8032C013325
:1005E0009F42F6D12568B9E70A4602AB01A9B04798
:1005F0000BB0F0BDD1080000E81FFF1F9A4B9B4ACB
:100600002DE9F047D3F80CE0C0F81CE01B69984FC7
:1006100003623B68974E43623368974D83622B6851
:10062000C362044680691368236382B050B10368D3
:10063000924A1B68934240F042814268007B1378E3
:1006400003431370884BDA68B2F1605F00F01A81DF
:10065000854B1A68550400F11F8142F4804040F038
:1006600001004FF060564FF0F0451860DE601D61EC
:100670001A607F4B7F4F7D4E7F4D7B484FF4107249
:100680001A604FF4A2733B6032602B60C26A764BF3
:100690005704FBD44FF080525A63DA6A42F00042AA
:1006A000DA62DA6A70485604FBD44FF08053436331
:1006B000C36AD1F808E043F00043BEF1000FC36203
:1006C00059DD0F68034606463A781AB1087B82FA6C
:1006D00050F2D2B2887C00FB0222C2F3072242F41D
:1006E0007F40DA6A5504FCD440F080527263F26AAB
:1006F00042F00042F2627A781AB1487B82FA50F2F4
:10070000D2B2CD7CB87805FB022202F47F450028E6
:1007100000F0A8800246887B82FA50F2D2B2087DAF
:1007200000FB022245EA1220DA6A5204FCD440F0AF
:1007300080527263F26A42F00042F26291F80CA0B9
:1007400091F80D9091F80E80CD7B087C4A7C91F950
:1007500015C00EF1FF3ECAEB0505C9EB0000C8EB62
:1007600002026744C1F808E00D7348738A730F6092
:10077000BEF1000FA8D148683B4A0028B8BF1F301F
:1007800040111146FF25D36A5F04FCD44D63CB6A48
:1007900043F00043CB62D36A13F48043FBD14B6335
:1007A000CB6A43F00043CB62D36A13F48043FBD19E
:1007B0004B63CB6A43F00043CB62D36A13F48043AC
:1007C000FBD14B63CB6A013843F00043461CCB623C
:1007D000D9D1254A06E0D36A43F00043D36200230F
:1007E00062B643B972B6D36A13F4704FF3D10123E2
:1007F00062B6002BF6D01C49CB6A1B4A002BFBDAF1
:10080000D36A1B4FA0691B4E184D1B4943F0104380
:10081000D3624FF4A2733B60A26A32602B60E36A3A
:100820000B6050B10368164A5B6893424BD1426833
:10083000017B137823EA010313700B4BE269D9683B
:10084000206A8A422FD0084B19684C0432D441F4F4
:10085000804444F001041C60DA601861196002B041
:10086000BDE8F08702465AE700C0024004C00440D9
:1008700008C0044018B0044014B0044075040000DF
:10088000810400001B69B3F1F04F3FF4F2AE0F4B4F
:100890001A6855047FF5E1AE4FF060504FF0F0421A
:1008A000D8601A61E5E61B699842D8D0074B1968F1
:1008B0004C04CCD5DA60186102B0BDE8F087019134
:1008C00098470199BEE69847B7E700BF00C00240CD
:1008D000F0B5857C1C785E789B7889B0012D0191FC
:1008E000029203928DF816408DF817608DF818303B
:1008F00016D000238DF815308DF814308DF8133094
:100900008DF812308DF811308DF810300268002308
:1009100092698DF81930079301A9904709B0F0BD8D
:100920001B4A1378013303F0070313F0010F137010
:1009300014BF80220022990744BF42F04002D2B285
:100940005B0748BF42F020021032D2B20DF1130310
:100950000DF116074FF4807EACB19EFBF4F4E4B2C7
:10096000611CC9B201FB02252D121970EEB205B14E
:10097000013E03F8036C01B11C700133BB42C5D0CA
:10098000DC78002CE9D11C7003F8034CF5E700BFBC
:10099000E81FFF1FF0B5857C1C785E789B7889B0D6
:1009A000012D0191029203928DF816408DF8176087
:1009B0008DF8183017D000238DF815308DF81430CD
:1009C0008DF813308DF812308DF811308DF810300D
:1009D0000368002203219B698DF81910079201A971
:1009E000984709B0F0BD1B4A1378013303F00703A1
:1009F00013F0010F137014BF80220022990744BF27
:100A000042F04002D2B25B0748BF42F020021032EF
:100A1000D2B20DF113030DF116074FF4807EACB185
:100A20009EFBF4F4E4B2611CC9B201FB02252D1255
:100A30001970EEB205B1013E03F8036C01B11C70F0
:100A40000133BB42C4D0DC78002CE9D11C7003F820
:100A5000034CF5E7E81FFF1F002310B4114C41724F
:100A6000026104600372C36041B1194600E002698B
:100A700042F82310427A01339A42F8DC0A4B1A6892
:100A80000AB90CE01A465369002BFBD150610023D0
:100A900043618380C38083725DF8044B70471860A4
:100AA000F5E700BF189500006446FF1F10B5194B0D
:100AB000036004460021012004F554620B46607275
:100AC00022612172E16000E0226942F82310627A1B
:100AD00001339A42F8DC104B1A680AB917E01A463B
:100AE0005369002BFBD1546100210C4B6161A18043
:100AF000E180A17221766183A183E18323604FF4B9
:100B0000506204F1400008F0D5F9204610BD1C6089
:100B1000EAE700BF189500006446FF1F74960000C6
:100B2000F0B52448036813F0010483B01FD02249B4
:100B30002248234F00233C220C4604F071FC05237D
:100B40003B7004F1B4060025214601A803348DF85A
:100B500004508DF805508DF8065004F023FDB44282
:100B6000F2D13978164804F0ADFC03B0F0BD05F0C1
:100B700041F80028DBD01349104B08685C60FF2265
:100B800001255C619C609D741A735A739A73DA73C1
:100B90001A745A7460B10C4A116801B18B60136009
:100BA00000220A4903489A61196005F029F8BEE756
:100BB0000B60F0E7EC1FFF1F7C3DFF1FF01FFF1FC6
:100BC0003845FF1F4845FF1F5845FF1F249500006B
:100BD00070B54FF47A7005F0B9F80821274806F08F
:100BE000E9F8274800F04AFF264B9FED277AD3ED1E
:100BF000006ADFED267A2248E6EE877AFCEEE77A95
:100C000017EE901A00F0D6FF0B21214802F01AF9D6
:100C10000D211F4802F068F9FE211E4802F07EFAFD
:100C200058B91C211C4805F0C1FF1C4806F0FEFB0A
:100C30004FF4FA7005F08AF8F3E71949194A1A4C8B
:100C400046F2666300254FF480364FF47A708B616C
:100C5000CB610B624B629361D36113625362A561F6
:100C6000E661266205F072F8FFF75AFF284604F0A5
:100C7000FBFEBDE8704006F03FBD00BF0002FF1F55
:100C8000EC3CFF1F4015FF1F00000143EE7CFF3EC0
:100C90004415FF1FBC42FF1F64950000D816FF1FBC
:100CA0007020FF1FB43CFF1F3820FF1F884229DB44
:100CB0002DE9F043144D154FDFF8549000EB40033D
:100CC00083B0044688461D44FF263B788DF80430E7
:100CD0005A1C294601A83A708DF805608DF8066007
:100CE00004F060FC99F80010094804F0EBFB013CAB
:100CF000052005F02BF8A045A5F10305E5DD03B0BF
:100D0000BDE8F083704700BF7C3DFF1F1422FF1F2A
:100D10003845FF1F884227DA2DE9F041134B144E66
:100D2000144F00EB400001EB410182B01C1803EBB3
:100D30000108FF2533788DF804305A1C214601A89C
:100D400032708DF805508DF8065004F02BFC397880
:100D5000084804F0B7FB0334052004F0F7FF4445CE
:100D6000E8D102B0BDE8F081704700BF7C3DFF1FB5
:100D7000943FFF1F3845FF1F884230DB2DE9F047C5
:100D8000174CDFF864A0DFF85C9000EB400382B002
:100D9000054688461C44FF2700269AF800308DF847
:100DA00004305A1C214601A88AF800208DF80570ED
:100DB0008DF8067004F0F6FB99F80010094804F06D
:100DC00081FB013D26706670A670052004F0BEFF11
:100DD000A845A4F10304E0DD02B0BDE8F087704748
:100DE0007C3DFF1F3845FF1F8421FF1F884230DCF8
:100DF0002DE9F047174CDFF864A0DFF85C9000EBBA
:100E0000400382B0054688461C44FF2700269AF816
:100E100000308DF804305A1C214601A88AF80020C1
:100E20008DF805708DF8067004F0BCFB99F8001081
:100E3000094804F047FB013526706670A67005204E
:100E400004F084FFA84504F10304E0DA02B0BDE831
:100E5000F08770477C3DFF1F3845FF1F0842FF1F8A
:100E6000F3EE0E7A20EE270ADFED107A20EE270A45
:100E700038B5FDEEC07A0E4B17EE904A64221E2064
:100E800021181A70C4F11D05FFF744FF29461D20E3
:100E9000FFF70CFF04F11D001E21FFF76DFF284630
:100EA0001D21BDE83840FFF7A1BF00BF3333733FBA
:100EB0003845FF1F10B51E2005F04CF804461D20D4
:100EC00005F048F8B4F5FA6F0FDD344B344C93ED70
:100ED000007AD4ED007A334B77EE877A93ED007A7F
:100EE000F4EEC77AF1EE10FA34D4B0F5FA6F0FDDF4
:100EF0002A4B2B4C93ED007AD4ED007A294B77EEF8
:100F0000C77A93ED007AF4EEC77AF1EE10FA00DCBE
:100F100010BDDFED256A9FED257AC4ED007AA7EEBE
:100F2000A67A2348FCEEC77A17EE901A00F042FE2C
:100F30000921204805F03AFE206807F063F941ECEA
:100F4000100B02211C4806F0C3FA1B48BDE81040F4
:100F500006F06CBA09211748C4ED007A05F026FEA8
:100F6000206807F04FF941EC100B0221124806F0FF
:100F7000AFFA114806F05AFAD4ED006A9FED0A7AEA
:100F8000DFED0A7A0A48E6EE877ABDE81040FCEE0B
:100F9000E77A17EE901A00F00DBE00BF3C15FF1F58
:100FA0004015FF1F3415FF1F00000143EE7CFF3E7C
:100FB000EC3CFF1F88950000D816FF1F72B61A4B35
:100FC0001A7F02F0FF010AB100221A7762B649B314
:100FD00010B51649164A096882B00191019911604D
:100FE00072B647F6FF744FF40040B3F91E10B3F920
:100FF0002020DC83188462B6002982EAE273A3EB26
:10100000E273B8BF49428B42B8BF0B4607EE903A35
:10101000B8EEE70ADFED077A80EE270AFFF720FF38
:1010200002B010BD704700BF3821FF1F6445FF1F8D
:101030008021FF1F00FEFF46F8B5164801F01CFD99
:1010400038BB154F154E3968144D002006F05AFB79
:10105000336898420446F6D0114E0E4856F82410D4
:1010600001F0A2FA0C210F482C6005F09FFD2B68BF
:1010700056F82340204608F003F80146204605F0C4
:1010800095FD094806F0D2F90A20BDE8F84004F0C1
:101090005DBEF8BD983FFF1F3815FF1F3421FF1FAD
:1010A0004095000094950000D816FF1F08B5094828
:1010B00001F0E2FC00B908BD002004F04BFFB0F5E0
:1010C000FA6FF8DD034801F039FABDE80840FFF790
:1010D000B3BF00BF983FFF1F00B583B0FFF7ACFF61
:1010E000FFF7E4FF074B084A1B680193019B126856
:1010F0009B1A142B01D9FFF761FFFFF7DBFE03B04A
:101100005DF804FB6445FF1F8021FF1F2DE9F04FB0
:10111000DFF8BCA15D4DDAF80020DFF8B891C5F822
:101120000090002385B06B722B612B72EB600AB9C3
:10113000A1E31A465369002BFBD155610026544B9D
:1011400054486E61AE80EE80AE722B6001F0BAFF43
:101150004E48514FDFF874B1DFF87C8101F0D8F9C7
:101160004E4A4F49494807F071FB4E48FFF79EFC35
:101170004D48FFF79BFC4D4B042103F12802184614
:10118000FFF76AFC4A4B03F128021846474B4FF41D
:10119000803404211F609C61DC611C625C62FFF78B
:1011A0005BFC444B03F128021846414B04211F60AD
:1011B0009C61DC611C625C62FFF74EFC3E4B03F1FC
:1011C000280218463B4B04211F609C61DC611C62B5
:1011D0005C62FFF741FC394B03F128021846364B9D
:1011E00004211F609C61DC611C625C62FFF734FCBF
:1011F000334B03F128021846304B04211F609C61D9
:10120000DC611C625C62FFF727FC2E4B03F11802C5
:1012100018462B4B01211F609C61DC611C625C62E3
:10122000FFF71AFC284B03F118021846254B47F626
:10123000FF744FF400470121DC83C3F800801F8452
:10124000FFF70AFC2049CBF8009004200BF11802AC
:10125000CC83C1F800800F84334631468BF8086098
:10126000CBF80C608BF80900CBF810205C4600E04E
:10127000226942F823109BF80920144801339A424E
:10128000F6DCDAF80020124B4ABBF7E2983FFF1F6A
:1012900018970000B03FFF1F809600003015FF1F19
:1012A0009D0400005C2FFF1F1822FF1FB43CFF1F8E
:1012B0007020FF1F343FFF1FF83CFF1F443DFF1FFE
:1012C0003820FF1F5C21FF1F3821FF1F443EFF1FF6
:1012D0006446FF1F189500004C9600001A4653699B
:1012E000002BFBD1C2F814B00024BF4BBF4AC0484A
:1012F0000193CBF80020CBF81440ABF80440ABF8D6
:1013000006408BF80A4001F051F8019BB94A1C7263
:1013100018461D605C72DC601C745A6005F046FE65
:10132000019BB549B54ADFF828A3DFF82893DFF819
:101330002883B34FB34E184607F088FAB248B34A31
:1013400042604FF0030204720560C460047442728C
:1013500005F02CFEA94AA849AB4807F077FAAC4B38
:10136000CAF8043050464FF001038AF808308AF872
:101370000940CAF80050CAF80C408AF8104005F03D
:1013800015FE9E4A9C49504607F060FA4FF0010353
:10139000484689F808309F4BC9F80430C9F8005016
:1013A00089F80940C9F80C4089F8104005F0FEFDA5
:1013B000924A9149984D484607F048FA944BC8F82C
:1013C00000304046954BC8F8043088F8084088F84B
:1013D0000940C8F80C4088F8104005F0E7FD874A3E
:1013E0008549DFF87892404607F030FA884B3B6039
:1013F0008A4B7B6038464FF001033B727B72FC6086
:101400003C7405F0D3FD7D4A7B49DFF854823846B1
:1014100007F01CFA7E4B3360804B736030464FF010
:10142000020333727372F460347405F0BFFD734AC3
:1014300071497B4F304607F009FA754BC9F8003007
:10144000764BC9F8043048464FF0030389F808305A
:1014500089F80930C9F80C4089F8104005F0A6FD5C
:10146000664A65496F4E484607F0F0F9684B2B60B5
:101470004FF004096C4B6B6028466C72EC602C7466
:1014800085F8089005F092FD5C4A5B49284607F014
:10149000DDF95F4BC8F80030634BC8F804304FF0FB
:1014A000050A4FF00103404688F80930C8F80C409F
:1014B00088F8104088F808A005F078FD4F4A4E499A
:1014C0005A4D404607F0C2F9514B3B60564B7B608A
:1014D0004FF006084FF0020338467B72FC603C7404
:1014E00087F8088005F062FD444A4349384607F012
:1014F000ADF9474B33604C4B73604FF003033046FC
:1015000073724FF007033372F460347405F04EFDCC
:101510003A4A3949464F304607F098F9354B2B6027
:101520002846444B444E6B602C726C72EC602C74F9
:1015300005F03CFD314A3049284607F087F92D4B2C
:1015400033603C4B736030464FF001033B4D3372C8
:101550007372F460347405F029FD284A2649304638
:1015600007F074F9234B2B60324B6B6028464FF029
:101570000203334E2B726B72EC602C7405F016FD77
:101580001E4A1D49284607F061F91A4B3360294B62
:10159000736030464FF003032A4D33727372F46068
:1015A000347405F003FD154A1349304607F04EF92F
:1015B000104B2B602846244B244E6B6085F8089016
:1015C0006C72EC602C7405F0F1FC0C4A0A49DFF8EF
:1015D0009490284607F03AF9064B33601A4B736033
:1015E00030464FF001033FE0A03CFF1F8C96000007
:1015F000443EFF1F1822FF1F910400003015FF1FFB
:10160000C421FF1FD821FF1F8821FF1F3820FF1F83
:101610005C2FFF1F443DFF1F0022FF1FF83CFF1FF0
:10162000A820FF1FBC20FF1F343FFF1FD020FF1F3B
:101630000C3FFF1FB43CFF1FE420FF1FF820FF1FDB
:10164000203FFF1F0C21FF1F7020FF1F2021FF1FC5
:10165000303DFF1F9C21FF1FB021FF1FEC21FF1F0A
:10166000F83EFF1F303EFF1F854D737286F808A0BD
:10167000F460347405F09AFC824A8349DFF85CA276
:10168000304607F0E3F8814B2B60814B6B602846B6
:101690004FF0020385F808806B72EC602C7405F043
:1016A00085FC784A78497B4B0193284607F0CEF8B1
:1016B000764B3B60764B7B604FF0070338463B72BE
:1016C0004FF00303744E7B72FC603C7405F06EFCBB
:1016D0006C4A6D49714DDFF80882384607F0B6F85C
:1016E0006F4B33606F4B736030464FF00103737282
:1016F0003472F460347405F059FC624A62496A4FEE
:10170000304607F0A3F8624B2B60664B6B602846AF
:101710004FF002036B722C72EC602C7405F046FCE7
:101720005949584A614E284607F090F8019B604A93
:101730001A60604A5A6018464FF002021C725A72D0
:10174000DC601C7405F032FC019B4F494D4A5A4D38
:10175000184607F07BF85948594A0260554A4260DA
:101760004FF0010204724272C460047405F01EFC62
:10177000444A4549514807F069F84FF002038AF896
:1017800009304C4B8AF8084050468AE80808CAF8E5
:101790000C408AF8104005F009FC3A4A3A49504694
:1017A00007F054F84FF0030389F80930414B89F8EA
:1017B0000840484689E80808C9F80C4089F81040F4
:1017C00005F0F4FB2F4A3049484607F03FF8394B03
:1017D000C8F8003040463B4BC8F8043088F8084051
:1017E00088F80940C8F80C4088F8104005F0DEFB86
:1017F000244A2549404607F029F82A4B3C723846CE
:1018000087E808087C72FC603C7405F0CFFB1D4A39
:101810001D49384607F01AF84FF001037372214B47
:101820003472304686E80808F460347405F0BEFB74
:10183000144A1549304607F009F81A4B2B60284620
:10184000214B6B602C726C72EC602C7405F0AEFB5B
:1018500028460C4A0C4906F0F9FF1C4B1C4A1B6831
:10186000039303981B4B1C4910600A2219601A72DB
:1018700005B0BDE8F08FCAF800505FE4186033E5AA
:10188000803FFF1F3015FF1F910400001822FF1F2B
:101890007020FF1F2420FF1F6C3EFF1F803EFF1F94
:1018A000B43CFF1F3820FF1FD03EFF1FE43EFF1F48
:1018B000343FFF1F443DFF1F6C3FFF1F943EFF1F3F
:1018C000F83CFF1F5C21FF1F3821FF1F6445FF1FED
:1018D0008021FF1FEC3CFF1F58960000A83EFF1F11
:1018E000BC3EFF1F2DE9F04F00F5807EB1E8A00A55
:1018F000B2E84015C5EA0643C6EA2544C7EA0845EA
:10190000C8EA2746C9EA0A47CAEA2948CBEA0C4985
:10191000CCEA2B4AA0E8F8078645E7D1BDE8F04FAE
:1019200070474FF000022DE9F00F00F5807C00BFFA
:10193000B1E8A00AC5EA0203C2EA2544C7EA0205E3
:10194000C2EA2746C9EA0207C2EA2948CBEA0209E5
:10195000C2EA2B4AA0E8F8078445E9D1BDE8F00FB8
:1019600070474FF000022DE9F00F00F5807C00BFBA
:10197000B1E8A00AC2EA0543C2EA0504C2EA074583
:10198000C2EA0706C2EA0947C2EA0908C2EA0B49E5
:10199000C2EA0B0AA0E8F8078445E9D1BDE8F00FD8
:1019A00070472DE9F00F089C00F5007B51F8045BAF
:1019B00053F8046BC5EA0647C6EA254952F8045BAA
:1019C00054F8046BC5EA0648C6EA254AA0E8800731
:1019D0008345EBD1BDE8F00F704700BF70B5002123
:1019E000064605F0B5FAC0B1B6F91E40B6F92010AA
:1019F000031D00F5827533F9022B9442A8BF1446EB
:101A00009142B8BF11469D42F5D80123F483318439
:101A10003377BDE8704005F057BA70BD00207047BD
:101A200000207047F8B5144C037A242908BFC280FF
:101A30005B0001250E462046C1F30721174684F8B6
:101A40003B3084F85E5084F85D5003F0E1FAF1B267
:101A5000204603F0DDFAC7F30721204603F0D8FA49
:101A6000F9B2204603F0D4FA2946204603F03CFCA4
:101A7000B0FA80F04009F8BDF415FF1F38B5012514
:101A800004460571334803F0D7FA052004F05EF9E7
:101A9000204644F260023021FFF7C4FF20466C224A
:101AA0002621FFF7BFFF20464FF4F9722821FFF7E8
:101AB000B9FF204640F622722C21FFF7B3FF2046E3
:101AC00044F246423C21FFF7ADFF204640F2371278
:101AD0002421FFF7A7FF204644F2FF023021FFF741
:101AE000A1FF732202212046FFF79CFF4FF4C8702C
:101AF00004F02CF9204641F61D522E21FFF792FFEB
:101B0000042211462046FFF78DFF20464FF49872BD
:101B10000621FFF787FF204610220A21FFF782FFE8
:101B2000204600220E21FFF77DFF204643F63C426F
:101B30001021FFF777FF204647F67F722221FFF73B
:101B400071FF204636222421FFF76CFF657228467C
:101B500038BD00BFF415FF1F10B5044619B10129A7
:101B600011D0002010BD55222021FFF75BFF002877
:101B7000F7D0E28842F00402204692B22421BDE868
:101B80001040FFF74FBF40F273122A21FFF74AFFC0
:101B90000028E6D0882220212046FFF743FF0028B6
:101BA000DFD0E288204622F004022421BDE8104064
:101BB000FFF738BF38B50546F1B1802903799ABFE0
:101BC000C1F1800444EA0424002433B922462846A3
:101BD0002221BDE83840FFF725BFC288002322F04C
:101BE000100203712421FFF71DFF224628462221FF
:101BF000BDE83840FFF716BF0123037147F67F7237
:101C00002221FFF70FFFEA8842F01002284692B225
:101C10002421BDE83840FFF705BF00BF9FED057ADE
:101C2000DFED057AE0EE077AFCEEE77A17EE901A20
:101C3000FFF7C0BF00000143EE7CFF3E2DE9F84FE7
:101C4000478B848B0137B7F5507F26BF00252F4681
:101C5000BDB2A742064600F096800021304605F04E
:101C600077F907F11003A74246F82300758380F047
:101C70009E8007F550752B1BF58BAB4212D95D1B6F
:101C80004FF0000906EB84080134D8F8400018B181
:101C900005F01AF9C8F84090B4F5507F28BF002429
:101CA000013DEFD10025B48306F120082C460DE05C
:101CB00009F1100956F8291019B1EAB2304605F0B9
:101CC0002DF90135082D08F104085AD0337E2B4137
:101CD000DB07F6D5D8F800204FEAD2194F4538BFB8
:101CE00007F5507302F07F0B2CBFC9EB0709C9EB56
:101CF0000309BBF1000FDBD005F092F88246002803
:101D0000DFD0031DB9F1000F53D140F23F32103242
:101D100056F82220002A53D002F5827EAEEB4B0B00
:101D2000DE450FD90AF102015A4632F9020B21F8B9
:101D3000020F9645F9D86FEA0B02724422F00102B5
:101D40000232134409F110090AF5827056F829206D
:101D5000002A4DD0834202F1040205D232F9021B5F
:101D600023F8021B9842F9D8EAB25146304605F0F2
:101D7000D5F80135504605F0A7F8082D08F10408FC
:101D8000A4D1BDE8F88F00EB8708D8F8400008B16F
:101D900005F09AF87C1CB4F5507F7FF45EAF00210B
:101DA000304605F0D5F80024C8F8400075833B1B89
:101DB00062E709F1FF32103256F82220002AABD137
:101DC00003EB4B029342BDD2194621F8024B8A42E3
:101DD000FBD8CAEB0202053A22F0010209F1100910
:101DE0000232134456F829200AF58270002AB1D134
:101DF0008342B9D223F8024B9842FBD8B4E700BF24
:101E000010B5044605F0F6F9204610BD024A034914
:101E1000034806F01BBD00BF3015FF1F011E000068
:101E20000C42FF1F38B5074D074C08482A4621468B
:101E300006F00CFD2A4621460548BDE8384006F06C
:101E400005BD00BF3015FF1F011E00001442FF1F1B
:101E50001C42FF1F024A0349034806F0F7BC00BFBB
:101E60003015FF1F011E00002442FF1F024A0349D4
:101E7000034806F0EBBC00BF3015FF1F011E000039
:101E80002C42FF1F024A0349034806F0DFBC00BF93
:101E90003015FF1F011E00003442FF1F2DE9F843DB
:101EA0004FF00008064600F1180547464146304607
:101EB000002F4FD005F04CF8F0B12C68B4F5803FFE
:101EC00007F1040100F1040E07F5827C27D05EF8CB
:101ED000042B34FB02F334FB12F903F30F0209F372
:101EE0000F03C2EA03430A6893FA12F341F8043B72
:101EF0008C45ECD804F0E8FF08F10108B8F1040FB4
:101F000005F10405D2D1002F40D0304639460022D9
:101F100005F004F83846BDE8F84304F0D5BF07F1F2
:101F20000C0100F10C0451F8083C54F8082C93FA09
:101F300012F341F8083C54F8042C51F8043C93FA8D
:101F400012F38C4541F8043C04F1080401F1080146
:101F5000E9D8CFE705F008F807460028CCD0286874
:101F6000B0F5803FC8D0391D07F582740B6830FB8F
:101F700003F230FB13F302F30F0203F30F03C2EA81
:101F8000034341F8043B8C42F0D8B5E7BDE8F88341
:101F9000024A0349034806F059BC00BF3015FF1F31
:101FA000011E00003C42FF1F024A0349034806F09D
:101FB0004DBC00BF3015FF1F011E00004442FF1F33
:101FC000024A0349034806F041BC00BF3015FF1F19
:101FD000011E00004C42FF1F024A0349034806F05D
:101FE00035BC00BF3015FF1F011E00005442FF1F0B
:101FF000524B53481A68534912682DE9F041824206
:102000001B790B7082B055D24F4B1B78002B6AD1D5
:102010004E4F3B68002B53D04D4A4E4E118804332F
:1020200003EB41013368002B4FD04B4A4B4D1288D4
:102030002C68043303EB4202002C4BD0484BDFF8F2
:1020400024811B88043404EB4303D8F80040002C9F
:1020500047D0DFF814E1BEF800E0043404EB4E048E
:102060000094FFF79EFC3868384C28B1384B1A882A
:10207000002A59D140221A803068364C28B1364B9C
:102080001A88002A47D140221A802868334C28B188
:10209000334B1A88002A35D140221A80D8F8000024
:1020A000304C20B1304B1A880ABB40221A8002B053
:1020B000BDE8F081254F3B68A0F50070002BABD147
:1020C000244E2A493368002BAFD1244D274A2C686F
:1020D000002CB3D1DFF88C80244BD8F80040002CC2
:1020E000B7D1224CBCE7224B01221A6090E70025B1
:1020F0001D8004F0E9FE1F4B1A6822601D6002B0CB
:10210000BDE8F08100251D8004F0DEFE1A4B1A6840
:1021100022601D60C2E700261E8004F0D5FE174B2A
:102120001A6822601E60B0E700271F8004F0CCFE12
:10213000134B1A6822601F609EE700BF6842FF1FB2
:10214000200CFF1F1F8000408042FF1F7C42FF1FAA
:102150007842FF1F7442FF1F8842FF1F9442FF1FF7
:102160007042FF1F8442FF1F5C42FF1F90960000D9
:1021700008E200E06042FF1F6442FF1F8C42FF1F25
:102180009042FF1F70B50021044604F0E1FE88B1C3
:1021900072B63B4A1368002B68D03A490D68002D8F
:1021A00054D0394E156000220860328062B618465D
:1021B00004F08AFE0121204604F0CAFE88B172B6FE
:1021C000324A1368002B47D031490D68002D3AD0B0
:1021D000304E156000220860328062B6184604F066
:1021E00073FE0221204604F0B3FE80B172B62A4A83
:1021F0001368002B35D029490D680DB3284E1560A2
:1022000000220860328062B6184604F05DFE204667
:10221000032104F09DFE90B172B6224A1368002B90
:1022200029D021490C68A4B1204D14600022086017
:102230002A8062B61846BDE8704004F045BE70BD05
:10224000086062B6E3E7086062B6CAE7086062B693
:10225000B0E7086062B670BD0E4910600B8062B6D0
:10226000BFE70F4910600B8062B6D0E706491060E7
:102270000B8062B69EE70D4910600B8062B670BDA0
:102280007C42FF1F9042FF1F7842FF1F7442FF1FD6
:102290008C42FF1F8842FF1F9442FF1F6442FF1FB2
:1022A0007042FF1F8442FF1F6042FF1F5C42FF1FFE
:1022B000284B29491A68294842F400421A600A68E2
:1022C00042F002020A601A6842F002021A600368D1
:1022D000002B3DDB224B1B68002B39DB214A4FF0E2
:1022E000864313601368002BFCDBF0B51E4C1F48BF
:1022F000DFF8ACE01E491F4B1F4A204F204E214DF6
:1023000047F2540CC4F800C0002404600120CEF849
:102310000000DFF890E0C1F800E04FF440311960B0
:10232000194B1360DFF880E0184A3A603460286087
:102330001748CEF80000174CB9671748174946F8F8
:10234000503C4FF4C0632A61236003600B60F0BD12
:10235000704700BF3C8004404080044000F00240D1
:1023600080F0024000F1024004F1024060F00240BF
:1023700008F002400CF0024010F0024014F002405D
:10238000E0F0024084F002401B0F0100000F0F0F2D
:102390000300004708B004400CB0044018B00440EB
:1023A00004F002400300000788F00240F8B52A4D0F
:1023B0002A4F2B4E2846012104F0B6FE29482A490F
:1023C0002A4A2B4B002404600C6014601C60FFF749
:1023D0006FFF2848284A29494FF4C06303601360FF
:1023E0002B68022219609A802A791F6102F18042CB
:1023F00002F5043240F21911D980DE6004214FF455
:10240000807006278D26D8829C619960D883998236
:102410009F831470167004F02DFE2A79184B194909
:10242000187053119B00174603F160430F70164C50
:10243000164E174D02F11000012103F5614302F021
:102440001F0201FA02F24FF08077124927602560DF
:1024500046F820101A60F8BD6842FF1F20F00240C5
:1024600000FCFFFF7C42FF1F7442FF1F9442FF1FCE
:102470008442FF1F04B0044000B00440200AFF1F44
:102480008042FF1F1B80004000F002400010FF1F31
:1024900001000090F11F0000024A0349034806F0C2
:1024A000D5B900BF3015FF1F011E00006842FF1F95
:1024B000024A0349034806F0C9B900BF3015FF1F9F
:1024C000011E00009842FF1F024A0349034806F01C
:1024D000BDB900BF3015FF1F011E0000A042FF1F45
:1024E000024A0349034806F0B1B900BF3015FF1F87
:1024F000011E0000A842FF1F024A0349034806F0DC
:10250000A5B900BF3015FF1F011E0000B042FF1F1C
:1025100038B50446C06D0C23002584F86B3284F86E
:102520006C32256510B104F0CFFCE565206E18B162
:1025300004F0CAFC0023236638BD00BF38B572B66C
:1025400090F86B320C2B26D0044600230C22C06D71
:10255000256EE365236684F86B2262B608B104F049
:10256000B3FC15B1284604F0AFFC04F1180000F0EC
:10257000BFFD0A4B1B689B030CD4094A13881BB18F
:10258000013B9BB2138043B940210648BDE8384067
:1025900000F040BC38BD62B638BD38BD3080044064
:1025A000B842FF1F4415FF1F30B589B00D460446E1
:1025B000FFF7C4FF2C4B1B689A0346D572B6012364
:1025C0002A466846294900F055FE08AA9DF80400ED
:1025D00012F8143D0299207784F82430216204F126
:1025E000250304F1320012F8011F03F8011B834296
:1025F000F9D1079B6363684600F072FD62B604F18F
:10260000180000F083FD054668B9174B1B689B0353
:1026100006D4174A13880BBB4021164800F0FAFB7A
:10262000284609B030BD0C2000231421082284F86C
:102630006C022846A4F86832A4F8663284F86A323C
:10264000216584F86B2209B030BD4021094800F0B3
:10265000CBFB074A138801331380AFE7013B9BB2E2
:102660001380002BD8D0DBE730800440BC42FF1F32
:10267000B842FF1F4415FF1F836B9AB2012A01D095
:1026800000207047C26B4AF644418A4222D045F28C
:1026900022618A421BD042F611318A42F0D10F49A1
:1026A00004221B0C012B04D0022BE9D1490842F073
:1026B0000102B0F84630082B04D0102BE0D14908B5
:1026C00042F00202816580F86C22012070470449C3
:1026D0000422E6E703490022E3E700BF34EE3517A2
:1026E0001AF79A0B8D7BCD052DE9F04FB0F86652A5
:1026F00000F1660783B03D4409B3DFF874B3DFF837
:1027000074A304460E464FF008084FF0000994F8F1
:102710006B320C2B00F24681DFE813F01100110040
:10272000C1008C00110011001100110004011500FE
:10273000490076001100BCF1000F00F0428100203A
:1027400003B0BDE8F08F236D94F86A12B34228BF3E
:10275000334604F138001A4608442946009302F033
:10276000D7FF009B94F86A02B4F86622216D0193AA
:10277000C91A18441A4484F86A02A4F8662221652A
:1027800000910029DBD12046FFF776FF002800F0FA
:102790000981019B0099C4F850800A22F61A1D4451
:1027A00084F86A1284F86B22002EB0D1C7E7236D3B
:1027B00094F86A12B34228BF334604F138001A462F
:1027C00008442946009302F0A3FF009B94F86A0294
:1027D000B4F86612226D18441944D21A84F86A02B9
:1027E000A4F866122265002AA9D1A06BE16B2165CD
:1027F00058451D44A6EB030600F0EA800B2384F83D
:102800006B32002E83D19AE7236DB4F866229E4284
:10281000C0F024811A440A21F61AC4F850801D44DD
:1028200084F86A92A4F8662284F86B12002E7FF472
:102830006EAF84E7236D94F86D129E4228BF1E464A
:102840009A1B2265002900F0B680E16DB4F864306F
:10285000A06B01EB430C4FF0000EACF8040084F8C1
:102860006DE2206E95F801C015F802EB00EB430015
:1028700001339BB24EEA0C2E7F2BA4F86430A6F1F4
:102880000206A0F804E000F2CA80002E40F0938017
:10289000002A00F0968084F86D62304650E7236D80
:1028A000E16D9E4228BF1E46C6EB030C0235C4F8FC
:1028B00050C003E00235002E3FF43DAFB4F8642071
:1028C00015F8020C15F801EC531C9BB201EB420207
:1028D00040EA0E207F2BA4F86430A6F10206908017
:1028E000E8D90022204604F019FB0122E16D2046C0
:1028F00004F014FBE06D04F0E7FA236D206E1E4433
:10290000ED1B0023A4F866522665E36510B104F0C0
:10291000DBFA266D16B90C2384F86B32012003B064
:10292000BDE8F08F236D94F86A12B34228BF334696
:1029300004F138001A4608442946009302F0E8FEE4
:10294000009B94F86A02B4F86612226D1844194488
:10295000D21A84F86A02A4F866122265002A7FF46B
:10296000EEAEA16B51451DD1216C4048814219D179
:1029700000F15B40616C00F5F11000F60F40814200
:1029800010D1A16CA1F1100008280BD80920F61A6B
:102990001D44216584F86A2284F86B02002E7FF4BE
:1029A000B6AECCE60C23002084F86C3284F86B328F
:1029B00003B0BDE8F08F023E287895F801E014D10D
:1029C000F2B90C23002084F86B3203B0BDE8F08F1D
:1029D00094F86C3284F86B32DB0784F86D2216D4DD
:1029E0006165002E7FF493AEA9E6E16DB4F8643022
:1029F00001EB430C40EA0E200235ACF8040030E74E
:102A00002B88A3630223304684F86D3298E604F0E5
:102A100007FA206600283FF492AE216DE0E700221D
:102A2000204604F07BFA4FF00008E06D04F04CFA09
:102A30000122216EC4F85C80204604F06FFA206EFB
:102A400004F042FA206DC4F86080ED1B3044A4F815
:102A50006652206500283FF45EAF5FE79B1B16447B
:102A60002365A4F8666200206AE600BF5741564518
:102A7000646174615249464690F86B0207288CBF26
:102A800000200120704700BF90F86B320C2B00F043
:102A9000A8802DE9F041044604F0C2F9E065002861
:102AA00000F08F8094F86B32072B40F28C8000236B
:102AB0002366B4F86832B4F866120022591A9142BB
:102AC000A4F8642005DD2046FFF70EFE002840F044
:102AD000968094F86B320C2B04F1180625D0304602
:102AE00000F06AFA08B304F166074FF000080FE03F
:102AF000A4F8668294F86B52FFF7F6FD94F86B32F7
:102B000000285CD10C2B10D0072D1AD9072B18D810
:102B100039464FF40072304600F0E4FA83B21946A9
:102B20002046A4F86832002BE2D1304600F0E0FAEB
:102B3000374B1B689A0355D50C2384F86C3284F804
:102B40006B32E06DF0B1B4F86430BBB17F2B09D8C3
:102B500000EB4303023300F58175002223F8022FB6
:102B6000AB42FBD101460022204604F0D7F994F88D
:102B70006B32072B01D8DB0743D5E06D04F0A4F9D5
:102B80000023E365206EE0B1B4F864308BB17F2B95
:102B900009D800EB4303023300F58175002223F8C6
:102BA000022F9D42FBD101460122204604F0B6F9D6
:102BB000206E04F089F900232366BDE8F0810C2B18
:102BC000B3D0BDE8F081D9077FF571AF04F028F9E3
:102BD000206600287FF46DAFE06DBDE8F04104F0A1
:102BE00073B970470B4A138823B1013B9BB2138022
:102BF000002BA1D14021084800F00CF99CE7BDE86A
:102C0000F0810122E16D204604F088F9B5E700BFAC
:102C100030800440B842FF1F4415FF1F10B4047FEA
:102C20004160022CC26003D05DF8044B04F0FEBA90
:102C300083685DF8044B1847F0B4464B464A986BDE
:102C40005C6B01791170454922790A701A6B007921
:102C50000870002A46D05968C9688A423ED821685F
:102C6000CC8B240402F1FF3065D4C0F30E00C8837E
:102C7000C88B80B2C882996B0968C88B000452D493
:102C8000C2F30E00C883C88B002480B212F1FF3259
:102C9000C88218BF01221C63596B2E4809680D6851
:102CA00000F12C04A54236D00068C46814F0804FAF
:102CB0000C680D6815BF248824780235013544F06E
:102CC00000440D604463996B254B097919702149C3
:102CD00012B14A6B12791A70F0BC7047521A1A631B
:102CE0000122D9E7D86B196805681E4C0A63CC62CB
:102CF000CC682D681C4E24F080440327B542CC607C
:102D000083F82D701FD1037F4260022BC2601ED05A
:102D1000F0BC04F08BBA016890F82C00CC6840F04D
:102D200000404863CFE7CC8BC2F3080004F47E4434
:102D30002043C883A7E7CC8BC0F3080004F47E448B
:102D40002043C88394E72B461146F0BC184783689C
:102D5000F0BC18474415FF1F1F8000401C80004036
:102D60001B80004000000FFF1D2C000090E80C00AD
:102D7000F0B41C6859682568164F174E2943216026
:102D8000164D17491760D66015611160417A154AD2
:102D90005C180C3194F82C4053F8215002EBC4011C
:102DA00049680D60017A5C1803EB8101247ECD69CE
:102DB00002EBC40149680D60817A581803EB810366
:102DC00090F84000596C02EBC002F0BC53681960E7
:102DD000704700BF01401F0001100038011000784B
:102DE00000001F80CC980000632911D830B44A0934
:102DF000C57A012303FA02F42C4300EB8202C47269
:102E0000D06801F01F0103FA01F10143D16030BC29
:102E1000704700BF632913D830B44D0900EB850417
:102E200001F01F01E368012202FA01F123EA010126
:102E3000E16021B9C37AAA4023EA0202C27230BC1F
:102E4000704700BFF0B4254B4568AB4211D0437AC0
:102E50002B4493F82C60B14209D005F12B020023DA
:102E600012F8014F8C421AD00133042BF8D1F0BC78
:102E700070470B292CD0072909D01C29E7D1184A03
:102E8000137823F0030343F002031370DFE7144ABF
:102E9000137823F0030343F001031370D7E795E899
:102EA00006000968114210D00E4A02EBC606002740
:102EB0007468E918276091F82C1002EBC10203F145
:102EC0000C01546855F8212022604372F0BC704711
:102ED000034A137823F003031370B8E71C9700002C
:102EE0001047FF1FCC980000284A43689A4270B4EC
:102EF00015D0827A1A4492F8402091420DD093F86E
:102F000040408C423FD093F841408C421DD093F812
:102F100042408C4208BF022118D070BC70470D2976
:102F20002BD00E2909D01B29E3D1194C227822F08D
:102F3000300242F020022270DBE7154C227822F0AA
:102F4000300242F010022270D3E701211D685C6854
:102F50002D6825420FD00F4C04EBC20200265568A5
:102F60005A182E6092F8402004EBC20403EB810350
:102F700062685B6C13608172CFE7054C227822F0A7
:102F800030022270B5E70021E0E700BF1C97000087
:102F90001047FF1FCC98000000207047704700BF0B
:102FA00010B582B002AB026803F8011D54681946DF
:102FB0000122A04702B010BDC06938B18369C06862
:102FC00047F6FF72181A904228BF1046704700BF9C
:102FD000C36910B504463BB100201871E06901F0E7
:102FE00063FCE3691B791BB101232371002010BD31
:102FF00010BD00BFC06978B100B583B001220DF1EA
:10300000070101F023FA01280CBF9DF807004FF0DB
:10301000FF3003B05DF804FB4FF0FF30704700BF96
:10302000C369C3B110B582B00446012218460DF140
:10303000070101F00BFA012803D04FF0FF3002B076
:1030400010BDE0699DF80740C168013901F0BAFA86
:10305000204602B010BD1846704700BFC06908B1D5
:1030600001F0E2BA704700BF2DE9F04105464FF488
:103070007A731348AB60002328602B712B732420D4
:103080000C46904605F01CFCE861B0B1064604F120
:10309000200E20686168A268E36837460FC71034C5
:1030A00074453E46F5D12068386041460C2205F152
:1030B0000D0006F053F800236B762846BDE8F0813A
:1030C000B89700004FF47A720449826000220160D0
:1030D00002710273C2614273704700BFB89700006B
:1030E000704700BFC06908B101F0B0B9704700BFB8
:1030F000C36953B110B50446184601F02FF9E069D1
:1031000005F0E6FB0023E36110BD7047C06918B10C
:103110008079003018BF0120704700BFFE2938B504
:10312000054617D00A46012100F006FE03460BB9FA
:10313000002038BD2C1D20460122294601F0A4FEA6
:1031400098B1214605F12C0001F058F9003018BF64
:10315000012038BD017000F0DDF9044600F0C8F927
:10316000B4FA84F35B09A870E1E7024629462046D9
:1031700001F08AFE0028E4D1002038BD2DE9F04F8F
:1031800099B04FF00008DFF8E8A08DF81C80814668
:10319000043106A8934601938DF81E808DF8408077
:1031A0008DF84280CDF818A0CDF83CA001F026F9AA
:1031B00006AE5D460FAF2F21284605F0DFFE441B0B
:1031C000E4B2294608B32B782F2B02A81BD00C2C75
:1031D00028BF0C24224605F0C1FF18AB2344384613
:1031E00003F8588C01F0BAF8012302AA3146384698
:1031F00001F04EFB88B3304601F0B0F83346254469
:103200003E461F46D7E70135D5E7019831797279F7
:10321000B379B468377DCBEB05050560F068356997
:1032200089F8041089F80520B16989F80630F26937
:10323000336AC9F80C004846C9F800A0C9F808402C
:10324000C9F8105089F81470C9F81810C9F81C2072
:10325000C9F8203019B0BDE8F08F89F8040089F86A
:1032600006004846C9F800A019B0BDE8F08F00BFBD
:10327000E0970000F0B59DB005461F4601A86B46DB
:103280001446FFF77BFF009AA35C1444002B42D046
:103290009DF80A202F4E0A9600238DF82C308DF8C9
:1032A0002E30002A31D00AA83B46224601A901F05F
:1032B000EFFA50B301A801F051F817F0060F43D10F
:1032C0009DF82C700C9B9DF82DE0139622469DF8DE
:1032D0002E408DF850708DF8524015930D990E9830
:1032E0009DF83C70109E119C129B8DF851E0169138
:1032F000179013A928468DF8607019961A941B939D
:10330000FFF7B2FE28461DB0F0BD2846FFF7DAFEF3
:1033100028461DB0F0BD9DF808700E4E9DF809407E
:103320009DF80A30039A8DF8507013968DF851402D
:103330008DF852301592049905989DF81870079EE3
:10334000089C099B044AD2E70AA8109901F03AF9AF
:10335000B6E700BFE0970000D4970000064B074A8D
:10336000DA620221002259609A7083F8242083F8DF
:10337000302083F832207047BC42FF1FE0970000E6
:1033800010B4114C114B226811491340184322F01C
:10339000080240F46020226020600B681C0706D4FD
:1033A0000C4B01E0013B02D00A681207FAD5064B2C
:1033B000094A5DF8044B40F008001860136843F4B4
:1033C00080131360704700BF2C100B400700F0FF04
:1033D00024100B40FFFF0F0030100B402149224A00
:1033E0000B6843F080030B6011461368DB07FCD4C5
:1033F0000B689B07F9D41D4B30B44FF08072194D08
:10340000186000E0A2B12968194B164C0B40013A34
:10341000002BF7D062B1012B0AD1236813F0800F83
:1034200023680FD043F001132360032030BC7047A2
:103430000C4A136843F4702343F001031360012026
:1034400030BC704713F4803305D0236843F0011378
:1034500023600520F4E7226842F00102184622604A
:10346000EEE700BF30100B4024100B400C100B4057
:1034700001000E0070B50D4D0D480E4E00232B605F
:10348000FFF7ACFF6324034606E04BB92B60FFF760
:10349000A5FF013C034605D0326805485207F4D425
:1034A000184670BD002808BF052070BD08100B40ED
:1034B0000000DB0C24100B4070B5094C00230546BE
:1034C00023600848FFF78AFF00B170BD064E074829
:1034D00033682560FFF782FF0028F6D1336870BD9E
:1034E00008100B4000001A3710100B400000022992
:1034F000074B1A784AB99A782AB15B78002B0CBF2F
:10350000022003207047012070470020704700BF51
:103510001043FF1F2DE9F047674D684E2B68684F39
:103520006849694C69486A4ADFF8C8E143F40033E6
:103530002B60336843F4005333603B6843F002036D
:103540003B600B6843F002030B60236805F59F4561
:1035500006F59F4607F59F4701F5D12123F00103AA
:10356000236001F2EC7140F203135835543654379E
:1035700003600024574813602C600A4633603B60A8
:10358000CEF800300860136813F08073FBD1524C02
:10359000524A5348534923604FF481354FF010137A
:1035A000282405600C6041F290001360FFF7E8FEEC
:1035B0004D4A13689C07FCD1454EDFF810E14B4C97
:1035C0004B4A4C494C4F4D4D4D4840F24343CEF889
:1035D000003033604FF48866266013604FF6FF7644
:1035E000484C3B6002F5C8220B6020322E604FF43D
:1035F000FA710460136843F00063136013681801E4
:10360000FCD40139F6D13D4A3748136843F08003B2
:1036100013600368DA0308D43B4B02205970997099
:10362000187059609960BDE8F087374C374E2170AB
:103630006170A170084631606160A160FFF7CEFE45
:1036400068B9334D33482B684FF4D5733360FFF7B7
:10365000C5FE40B92B682B68B3F5D57F29D0012072
:103660002070BDE8F0870528F9D10020FFF724FF7E
:103670000028F4D1264B1A6812F4401F58D0627803
:10368000254FDFF89880002A05461E4608BF4FF4F4
:10369000401704E03268002A42DB454546D03846F0
:1036A000FFF70AFF01351A4B0028F3D00120BDE8CF
:1036B000F08701236370D8E73080044038800440ED
:1036C0003C8004404080044000D0004000D00440D2
:1036D00004D0044000800001C0100B4044100B4097
:1036E00004100B4028100B4024100B4008D004405D
:1036F0000CD0044014D0044010D0044030100B40D3
:1037000034100B40BB007F111043FF1F08100B400B
:1037100010100B4000001A0800003040A086010085
:10372000554A954202D01B685B0001D400236370A8
:10373000524E534800233360FFF750FE03460028E3
:103740008DD1504D50482A683360FFF747FE00285E
:1037500085D12B682B684D484D4D1B0C1B043360E5
:103760006360FFF73BFE00287FF479AF494B4A497D
:103770001A68120EEA700A6812F4400F71D11968C3
:1037800046481B68026800689B0203F4406343EAF2
:103790009253C0F3C2105A1CC1F30321831C093990
:1037A00002FA03F38B40AB60344E636833603C48ED
:1037B000374FFFF713FE00287FF451AF314D3948E2
:1037C0002B684FF400733360FFF708FE00287FF486
:1037D00046AF7B682A6834483360FFF7FFFD002856
:1037E0007FF43DAF02232A6830483360FFF7F6FDCF
:1037F00000287FF434AF2E4B2A681A68DFF8B8A08F
:10380000DFF8B890DFF8B8802A4C22F006021A6080
:103810001A68A6F5C726A6F2FC76A5F5C82542F0DB
:1038200002021A6040F20313CAF80030C9F80030EF
:10383000C8F8000033604FF490702B602360FFF7EE
:103840009FFD40F243434FF48862CAF80030C9F844
:103850000030C8F8002033602B6023603878BDE862
:10386000F08701220D4BAA701B68C3F31523134484
:103870009B02AB6098E700BFA086010008100B40D8
:103880000000090210100B4000001A030000090993
:103890001043FF1F18100B401C100B4014100B405E
:1038A00000001B0700001A1000001A3700001A065B
:1038B00028100B4014D0044000D0044004D0044031
:1038C00008D00440F8B5384B1A780AB10320F8BD87
:1038D0005B78064603B94902344D354C354B3648C2
:1038E0004FF6FF774FF481322F6021601A60FFF7A7
:1038F00075FD0028EBD1314B31491B681C3406F1B2
:10390000400206F510702B68284F43F0200613F490
:10391000E00F2E603ED123681E05FCD50B6842F8EF
:10392000403C0B6842F83C3C0B6842F8383C0B6862
:1039300042F8343C0B6842F8303C0B6842F82C3CAF
:103940000B6842F8283C0B6842F8243C0B6842F8AC
:10395000203C0B6842F81C3C0B6842F8183C0B6892
:1039600042F8143C0B6842F8103C0B6842F80C3CDF
:103970000B6842F8083C0B6842F8043C4032824233
:10398000C1D1002009490B68084A9B07FBD50D4BA4
:103990001360F8BD43F4E00343F020033B60FFF7FE
:1039A00069FD0120EEE700BF1043FF1F30100B4000
:1039B00008100B4004100B4010003A1110100B407F
:1039C00020100B4022000001F8B52B4B1A780AB1E9
:1039D0000320F8BD5B78044603B94902274D284E01
:1039E000284B29484FF6FF774FF481322F60316022
:1039F0001A60FFF7F3FC0028EBD1244B24491B6825
:103A00002E4604F500772B681C4AD806FBD5336890
:103A100013F4E00F1AD104F1400254F8043B0B6098
:103A2000A242FAD12B68DFF854E043F010032B6078
:103A30002B6813F4E00013D19742E4D10F490B68CF
:103A40000E4A9B07FBD5134B1360F8BD136843F474
:103A5000E00343F010031360FFF70CFD0120EDE7D6
:103A6000DEF8003043F4E00343F01003CEF80030FA
:103A7000FFF700FD0120E1E71043FF1F30100B406E
:103A800008100B4004100B4000003A1810100B40B7
:103A900020100B4012000001052822D8DFE800F0BA
:103AA00003030F151B09124B124A1A601248FFF745
:103AB0005DB90F4B114A1A600F48FFF757B90C4B0D
:103AC0000F4A1A600C48FFF751B9094B0D4A1A60AA
:103AD0000948FFF74BB9064B0B4A1A600648FFF737
:103AE00045B9034B094A1A600348FFF73FB900BFC5
:103AF0002043FF1F000001B84415FF1F04300038A9
:103B00000110003803200038010002380650013847
:103B100010B50121007802F0EBF8114A1378C3B117
:103B20001049CB7A00241846147093B1DA0703D5F4
:103B30000D4AC869106018469C0703D50B4B0A6AEA
:103B4000C87A1A60420705D4030702D5084B8A6A6F
:103B50001A6010BD074B4A6AC87A1A60F4E700BFC2
:103B60002443FF1F4415FF1F00E100E004E100E0D3
:103B70000CE100E008E100E0234B1A781AB100786C
:103B8000002102F0B5B870B4204A2149D47A0968FE
:103B900001251D70002C26D072B6D47AE607234684
:103BA00006D51C4DD3682E683340D3612B60234665
:103BB000A50706D5184D14692E68D37A34401462CF
:103BC0002C605C0706D5154D54692E68D37A3440B5
:103BD00054622C601B0705D5114C936925682B4056
:103BE0009362236062B61368DA688A4207D00D4C8C
:103BF0001C600D4AD96041F080441C611A60007855
:103C0000002170BC02F074B82443FF1F4415FF1F4D
:103C10002043FF1F80E100E084E100E088E100E054
:103C20008CE100E001403F0000003F80F0B412480A
:103C3000124A036882B016460093009F4FF0004579
:103C4000FF24136843F480631360D5625463D36A1E
:103C5000002BFCDAB36BDBB2FF2B09D003680193B6
:103C6000019BDB1B8B42ECD3002002B0F0BC704701
:103C7000012002B0F0BC70476445FF1F00C0024045
:103C8000F8B50D464FF4967116460446FFF7CEFF81
:103C9000284B1A684FF0004042F4806245F0400122
:103CA0001A60D8621A465963D36A002BFCDA21499C
:103CB00018204FF000470A6826FA00F342F48062A9
:103CC000DBB20A60CF624B63CB6A002BFCDA0838A8
:103CD00010F1080FEFD155B3082D0CBF8721FF213C
:103CE000144B1A684FF0004042F480621A60D862A8
:103CF0001A465963D36A002BFCDA0E4A002716468F
:103D00004FF00045FF21136843F480631360D562D0
:103D10005163D36A002BFCDAB36BD8B21B06607018
:103D200000D4F8BD0137B7F5807FECD1F8BD9521FF
:103D3000D6E700BF00C002402DE9F04300239D4EAE
:103D4000027085B08370336801930546884610463B
:103D50000121019F01F0CCFF2878012101F0CEFF65
:103D60002878012101F0C4FF934A136843F480537B
:103D700013600620FFF790FEDFF870E28F4B9EF88D
:103D80000BC01A68BCF1000F2CD072B69EF80B1055
:103D9000C8070B4608D58A48DEF80C300468234073
:103DA000CEF81C3003600B468C0709D58548DEF839
:103DB000101004689EF80B302140CEF820100160EE
:103DC000580709D58048DEF8141004689EF80B30B7
:103DD0002140CEF824100160190700F1AB8062B6D3
:103DE0009EF80BC0DEF80030D968914207D07748C2
:103DF00018607749DA6042F0804018611960754AAE
:103E00000A244FF00040FF21136843F480631360DD
:103E1000D0625163D36A002BFCDA013C14F0FF043A
:103E2000F2D1BCF1000F21D01CF0010F05D06A4B7C
:103E3000DEF81C209EF80BC01A601CF0020F05D0A3
:103E4000664BDEF820209EF80BC01A601CF0040FB1
:103E500005D0634BDEF824209EF80BC01A601CF0DE
:103E6000080F03D05F4BDEF828201A602846FFF7C2
:103E700083FE06E033680293029BDB1BB3F5FA6F07
:103E800051D8002211462846FFF7FAFE0128814644
:103E90006870EFD14FF4D57208212846FFF7F0FE85
:103EA000430726D585F802904FF0000906E03368F5
:103EB0000393039BDB1BB3F5FA6F34D80022372141
:103EC0002846FFF7DDFE4A4629212846FFF7D8FE9F
:103ED00068700028EBD1AB78022B39D02846FFF769
:103EE00017FE4046FFF7D8FD0124204605B0BDE887
:103EF000F083384A042194464FF0004EFF201368A7
:103F000043F480631360C2F82CE05063D36A002B43
:103F1000FCDADCF838300139DBB211F0FF016B70EC
:103F2000EDD1AA2B0FD02846FFF7F2FD204605B0B1
:103F3000BDE8F0832C49DEF8183008680340CEF85D
:103F400028300B604BE70223AB704FF08049B5E798
:103F500002463A212846FFF793FE0028E3D11D4B85
:103F60001A684FF0004442F48062FF201A6019463C
:103F7000DC625863CB6A174A002BFBDA936B154A55
:103F800003F0C003C02B04BF0323AB70032116460C
:103F90004FF00044FF20136843F480631360D46241
:103FA0005063D36A002BFCDA013911F0FF01B36BC7
:103FB000F1D193E76445FF1F3C8004402043FF1F7D
:103FC00080E100E084E100E088E100E001403F00A2
:103FD00000003F8000C0024000E100E004E100E09A
:103FE00008E100E00CE100E08CE100E04415FF1F77
:103FF000F0B41549154A0B6882B016460093009F2D
:104000004FF00045FF24136843F480631360D562CA
:104010005463D36A002BFCDAB36BDBB2FF2B437023
:104020000AD10B680193019BDB1BB3F5967FEAD99C
:10403000002002B0F0BC7047A3F1FE00B0FA80F09F
:10404000400902B0F0BC70476445FF1F00C0024049
:10405000F8B58378032B0E46044618BF4E0215466A
:10406000FFF78AFD324611212046FFF709FE18B9F5
:104070002046FFF7BDFF20B92046FFF749FD00208D
:10408000F8BD204B2049214A1A608E4659631A46D2
:1040900059631E46596305F5FD70A91C05F5FE77A9
:1040A000D36A13F0F00FFBD0C6F834E0B36B01F81D
:1040B000013C1B1201F8023C02318F42F0D105F5A0
:1040C0000075A8420DD20F4A1646D36A13F0F00FBE
:1040D000FBD0B36B191200F8021BA84200F8013C98
:1040E000F3D3084B0949084A196019465A63CB6A49
:1040F000044A13F0F00FFAD02046936BFFF708FD47
:104100000120F8BD00C00240FFFF009000041F80A6
:10411000F0B4314E33684FF0004743F480633360AE
:104120003D46F762344671633346511C02F2012763
:10413000E26A002AFCDA1A6811F8016C42F4806223
:104140001A60DD625E63E26A002AFCDA1A6811F81E
:10415000026B42F480628F421A60DD625E63E7D1D7
:104160001D49CA6A1C4B002AFBDA1A684FF0004549
:1041700042F48062FF241A601946DD625C63CB6AF8
:10418000154A002BFBDA13684FF0004543F48063B7
:10419000FF2413601146D5625463CB6A0E4A002B8C
:1041A000FBDA13684FF0004543F48063FF2413608B
:1041B0001146D5625463CB6A074A002BFBDA936B36
:1041C000DBB203F01F024370A2F10500B0FA80F0E9
:1041D0004009F0BC704700BF00C0024070B5044603
:1041E00071B18378032B0D4618BF4D021646FFF7B9
:1041F000C3FC2A4618212046FFF742FD054620B1A0
:104200002046FFF785FC002070BD3246FE21204687
:10421000FFF77EFF0028F3D04FF416712046FFF71A
:1042200005FD0028ECD02A460D212046FFF728FD89
:104230000028E5D10B4B1A684FF0004542F480622C
:10424000FF201A601946DD625863CB6A054A002BCD
:10425000FBDA936B13F0FF0FD2D12046FFF758FC27
:10426000012070BD00C00240014B024A1A60704735
:104270002043FF1F0320003838B590F90530002B8C
:1042800003DBBDE8384000F013BC0446012100699F
:1042900000F04EFCF8B1257D104B13EB45151AD0FC
:1042A000A3790F4A012B9CBFA369EB61E3691268F4
:1042B0006B831B0CAB8232B105F1160105F11800BE
:1042C00090472B8B6B82637903F07F036371BDE8AA
:1042D000384000F0EDBB002038BD00BF3443FF1F65
:1042E0002843FF1F10B500F1080204460121006AAF
:1042F00000F012FD50B1E3693BB96379A268E26155
:1043000063F07F036371012010BD012010BD00BF69
:1043100070B50646FFF7E6FF98B1326AB568117CC2
:1043200053691479023D8D40013B74B11D4402E094
:1043300014F0FF0407D0601900F06AFC013C00286B
:10434000F6D1002070BD336A197CB0694FF4007259
:1043500002FA01F30344B361012070BD82790AB906
:104360000020704710B50446FFF786FF18B1002300
:10437000A371012010BD002010BD00BF70B44B1E02
:1043800001F10A04202203F8012FA342FBD10138D6
:104390000025072610F8014F2CB32E2C1ED0164AEC
:1043A00001E09C4217D012F8013B002BF9D1AE423C
:1043B0001FD3A4F121025D2A1BD8A4F16102192A9E
:1043C00005F1010398BF203C0D44DBB298BFE4B275
:1043D0002C701D46DEE7002070BC70470A2EFAD014
:1043E00008250A26D6E70B78B3F1200018BF012074
:1043F000F2E71846F0E700BFF097000038B5837980
:104400003BB991F82020102A0D46044603D0202AFB
:1044100010D0002038BD022282714A8CC361530142
:10442000836100230120607123752562A360E3602E
:10443000236138BD03238371496AC16100F1180209
:10444000284600F039FC0028EBD1E2E7837913B964
:104450004FF0FF3070472DE9F04F8B464179C90787
:1044600083B005465BD5C1688469641A944228BF4D
:10447000144626460194002C69D01A46022ADFF819
:10448000FC903D4FDFF8F880C1F3080A42D0286A5B
:104490000479013C04EA5124E4B2BAF1000F62D17C
:1044A000002C60D1002956D1EA69AA6090F810E08A
:1044B0004169023A02FA0EF221441144CAF500742D
:1044C0006A79B442A8BF344653062DD4B4F5007FB0
:1044D0002AD00846002100F02BFB00B30AEB090E9E
:1044E0000EEB040086450BD00BF1FF32734613F838
:1044F000011B02F8011F9842F9D1CEEB0000834462
:10450000E968361B2144E96021D0AA79022AC1F367
:10451000080ABCD12A6A506A00EB5121CEE74FF05D
:10452000FF3003B0BDE8F08F3A689142D1D0D8F89F
:1045300000000378FE2B18D05A46FFF789FD0028AB
:10454000EDD0E968361B2144A344E960DDD1019830
:1045500003B0BDE8F08F05F10802A96800F074FB14
:104560000028DCD0286AAA68A0E75846FFF7AAF915
:10457000B0FA80F04009E2E78415FF1F3443FF1FC3
:104580003043FF1F8379012B17D930B5C36883B03F
:1045900001220DF107010446C3F34315FFF756FF4F
:1045A000012802D0002003B030BDE36804481F3367
:1045B00000EB4510E36003B030BD0020704700BF42
:1045C0003443FF1FF8B5837913B182698A4201D25F
:1045D0000020F8BD022B0F4605461AD007B32B6A00
:1045E000E9681C7C4A1E04F109037C1EDA40DC40A9
:1045F000A24211D9EB69AB6005F1080606E0A96893
:10460000286A00F021FB013C0028E1D03246002C52
:10461000F5D1EF600120F8BD0029EBD0A41AEBE73B
:10462000AF60EF600120F8BD83790BB1FFF724BEC6
:10463000184670478379012B01D000207047F0B5F0
:104640004579AC0783B002461CD585698D420C467E
:1046500018D3D5B12546D6681446FFF7B3FF88B105
:10466000B5B9E169206A00F0E1FB58B1E56122E0EB
:1046700000F0DCFB30B16FF07042A168206A00F0FE
:10468000C3FBC0B9002003B0F0BD184603B0F0BDB5
:1046900001AAA168206A00F0D7FA0028F2D0206AA7
:1046A0000F4B90F8207001994FF6F872102F08BF49
:1046B00013469942DCD36379A279A56163F07F0345
:1046C0006371002ADED02046FFF7D6FD0028D9D03E
:1046D000B5422946204628BF3146FFF773FFD2E78F
:1046E000F8FFFF0F70B51D4B03EB4116F37A13F083
:1046F000110F02D012F0420F1ED1194B01751B6829
:104700000361738BB18A43EA0141C161F37A13F00B
:104710001803154604460DD1F369836101238371A3
:1047200005F00F03002163716B06A160E1600FD4F7
:10473000012070BD102B01D0002070BD00F11802C7
:10474000006A00F0B9FA0028F6D00423A371E7E765
:104750002046BDE87040FFF76DBF00BF3443FF1F28
:104760008415FF1F2DE9F04784B001AF06460C46C3
:10477000104639469946FFF701FE78B30022216AB8
:10478000316213461546A260E260DFF8008108E05E
:10479000E52B1CD001460B22384604F059FB88B3A8
:1047A000E368A2699A421DD92046C3F3431AFFF772
:1047B000E9FE98B10378002BEAD15DB9D8F8003052
:1047C00086F814A03361037823B10125E8E7002DB2
:1047D000FBD1F3E709F01203122B1DD0002004B027
:1047E000BDE8F08709F01203122BF7D1A5B9A37920
:1047F000022BF3D02046FFF78BFD0028EED0214C92
:10480000357514E009F03003302BE7D04A465146A5
:104810003046FFF767FFE2E70121306900F088F9D1
:104820000028DBD0347D174B13EB4414D6D0202264
:104830000021204604F03EFB97E80700234603C30F
:10484000114923F8022B0D68120C1A709DB104F166
:104850000E0104F11000A847238AE28963822383B2
:10486000E28200F025F90028B8D04A46317D304672
:10487000FFF738FFB3E742F621034FF400622382CB
:10488000E281EBE73443FF1F2843FF1F8415FF1F1E
:1048900010B484791CB100205DF8044B70475DF8BA
:1048A000044BFFF75FBF00BF2DE9F04F8B468179C6
:1048B00085B001290746019205D001233B710020F4
:1048C00005B0BDE8F08F42799107F6D5530708D5BA
:1048D000FC68B9698C4200F0B480FFF773FE0028D1
:1048E000EBD0019BFC68002B4AD0DFF8A491DFF8E5
:1048F000A4A1DDF80480386A0679013E06EA542650
:1049000016F0FF06C4F3080443D1002C41D1B96866
:10491000002973D1FA69002A00F08380BA60C4F5D7
:104920000075ADB245453AD9057C4169023AAA40C5
:104930000E4416441FFA88F51CB9F868BA6990420B
:104940004FD23046012100F0F3F80028B5D04C4496
:1049500004EB050E74450DD00BF1FF31621E0EF114
:10496000FF3611F8010F02F8010F9642F9D1C4EB9E
:104970000E04A344FC68B8EB05082C44FC60BAD1D3
:10498000BB69A34262D27A79BC6142F080027A713B
:1049900065E0C4F50075ADB24545BA68C4D8017C80
:1049A0004069023A8A400644B5F5007F1644C3D1F7
:1049B000DAF80020964204BF4FF0FF32CAF8002018
:1049C0002F4A10680278FE2A314633D05A46FFF744
:1049D00005FC00283FF471AF0BF5007B4FF4007528
:1049E000C8E700F065F800283FF467AF2549CAF82A
:1049F00000600A7842F001020A70A8E703AA00F0FA
:104A000023F900283FF45CAF386A1F4B90F8205020
:104A1000039A4FF6F871102D18BF19468A42FFF419
:104A20007DAF3846FFF75EFC00283FF446AF386A9A
:104A3000BA6874E75846FEF7C7FFB0FA80F040093D
:104A4000C7E7019B002B7FF450AF08E00F4B7A794A
:104A50001B6823B1019B13B142F080027A711207E7
:104A600009D5BB79002B3FF428AF3846FFF704FC8B
:104A700000283FF422AF019805B0BDE8F08F00BFD9
:104A80003043FF1F3445FF1FF8FFFF0F2843FF1F70
:104A90003443FF1F8415FF1F00B583B002AB012212
:104AA00003F8011D1946FFF7FFFE03B05DF804FB94
:104AB00070B51A4C23780BB9012070BD184D194BF5
:104AC000286819680378FE2B17D0174AFFF786FB72
:104AD00088B1164E316819B900232370012070BDCA
:104AE00028680378FE2B0FD00F4AFFF777FB10B131
:104AF00000233360F0E7002070BD0B48FEF764FF31
:104B0000B0FA80F04009E3E70748FEF75DFFB0FA2E
:104B100080F040090028EBD1EDE700BF3445FF1FCE
:104B20003043FF1F8415FF1F3443FF1F2C43FF1F1B
:104B300070B5124D2B6883420E4611D00446FFF724
:104B4000B7FF08B9002070BD0D4B18680378FE2B25
:104B50000CD00C4A2146FFF77BFA0028F2D02C60DB
:104B6000094B197831431970012070BD2146054861
:104B7000FEF7A8FEB0FA80F04009EEE78415FF1FAB
:104B80003043FF1F3443FF1F3445FF1FF8B590F833
:104B90002030C469102B1A4B05460E4617461B6879
:104BA00016D004EBD1149C4216D106F07F06154AAC
:104BB00042F826701449287E0A78012842F0010242
:104BC0000A7018D9A968114A0B4413600120F8BD76
:104BD00004EB11249C4208D000212046FFF7A8FFD7
:104BE00050B195F82030102B07D1F6B2054A234674
:104BF00022F81670DEE70120F8BD2346D5E700BF96
:104C00008415FF1F3443FF1F3445FF1F2C43FF1F34
:104C100010B50446FFF74CFF78B1084B002103F5AF
:104C2000007203F8011F9342FBD1054A054913782E
:104C30000C6043F001031370012010BD3343FF1FCC
:104C40003445FF1F8415FF1FC36801338B4218D3FF
:104C500070B590F82030102B154B044616460D46C3
:104C6000C0691B680FD000EBD11098420FD105F03E
:104C70007F01104B53F8213023F070433360012043
:104C800070BD0020704700EB1120984207D0002132
:104C9000FFF74EFF50B194F82030102BE7D1E9B266
:104CA000044B33F811303360012070BD002070BD1B
:104CB0008415FF1F3443FF1F2DE9F04782B002AD7A
:104CC000DFF8508045F8041D044691464FF0000A75
:104CD0004FF400774FF6F8760CE094F82030227C01
:104CE0000199102B14BF4346334607FA02F299424A
:104CF000924408D22A462046FFF7A6FF0028ECD1AE
:104D000002B0BDE8F0870120C9F800A002B0BDE8FC
:104D1000F08700BFF8FFFF0F2DE9F04F176883B051
:104D20006FB301374FF0000AC36803F1010813B3F2
:104D30008B46064691463C46002505E01C461F462C
:104D4000F3680135AB4216D9A04538BF022421468D
:104D500001AA304638BF2746FFF776FF631CD91BF0
:104D600048B1019A002AE9D18B4510D01C46F3685E
:104D70000135AB42E8D8002003B0BDE8F08FA1F1C7
:104D8000010ABAFA8AFA07684FEA5A1ACCE7012CE4
:104D9000F1D9F36801339C42EDD86FF0704221469F
:104DA0003046FFF7F3FE0028E5D0A74214D2013CBD
:104DB000012CE0D9F36801339C42DCD8621C214607
:104DC0003046FFF7E3FE0028D5D0A74204F1FF34B8
:104DD00002D0012CEED1CEE7D9F8001059B101294B
:104DE000C9D9F36801339942C5D83A463046FFF72E
:104DF000CDFE0028BFD0C9F80070BAF1000F01D075
:104E0000013737600120B7E701290CD9C3680133A6
:104E1000994210B403D85DF8044BFFF7B7BE0020E9
:104E20005DF8044B70470020704700BFF0B50223C7
:104E300083B00546134F03600C464FF6F8760FE03B
:104E4000EB6801339C4216D8FFF7A0FE98B195F8A5
:104E50002030019C102B0CBF33463B469C420DD2A8
:104E600001AA21462846FFF7EFFE2146002210B195
:104E7000012C2846E4D8002003B0F0BD012003B087
:104E8000F0BD00BFF8FFFF0FF8B53E4B05461960B7
:104E90001446DAB1042A01D90020F8BD00210846E1
:104EA000FFF746FE0028F7D0374B03EB041292F8C9
:104EB000AE215206F0D11B3403EB0414D4F80A30AF
:104EC000632BE9D9D4F80640002CE5D00021204618
:104ED000FFF72EFE0028DFD02B4AB2F80B30B3F5D7
:104EE000007FD9D1117C0029D6D0D389002BD3D013
:104EF000567B002ED0D0002329762E712B740127EB
:104F000003E009290B462974C6D007FA03F0B04222
:104F100003F10101F5D1D68A1B4906B94E6AB2F8F0
:104F20000EE0AE60A644C5F81CE0B2F81110177C84
:104F30006984480106FB07E600F2FF1006EB6020DB
:104F40006E626861B2F813100F4E01B9316A241A0B
:104F50000C4424FA03F340F6F4718B42EB600BD956
:104F60004FF6F4718B4285BFD36A6B621023202306
:104F700085F820300120F8BD0C2385F82030012071
:104F8000F8BD00BF3043FF1F3443FF1F90F83920A6
:104F900090F83800101A704790F8383090F839209F
:104FA0009A4205D95A1C034480F83820187E70476D
:104FB0004FF0FF30704700BF90F8383090F839203C
:104FC0009A4286BF1B18187E4FF0FF30704700BF13
:104FD000704700BF38B50546B0F85E0090B195F84F
:104FE0005D301446C3F1210294420CD805F13B0018
:104FF0001844224600F08CFB95F85D30234485F878
:105000005D30204638BD012014462871EEE700BF10
:10501000B0F85E306BB190F85D30202B07D8C21825
:10502000013380F85D30012082F83B107047012386
:1050300003710020704700BF0023426980F83830B8
:1050400080F8393080F85C3080F85D3080F85E3070
:1050500080F85F3006CA30B40D68046943662A439D
:1050600083660A60A370426990F86130164914683B
:1050700013441D7A5B7B01EBC5051B026D6803F4CD
:10508000E06343F064032B6090F8623013449D7C2E
:10509000DB7D01EBC5011B02496803F4E06343F0CB
:1050A00064030B6021685368194205D003692C2200
:1050B0005A70036904229A71036920225A710369A4
:1050C00080229A7030BC7047CC98000038B50269D5
:1050D000D478E4B2E106054624D51023D3706306E4
:1050E0001FD504F0040404F0FF03002C5AD04249F9
:1050F0006A6E00230B7085F85D30002A66D09047F9
:1051000095F85D30002B61D02B69D0229A702B6905
:1051100095F83B201A712B69012285F85C20022248
:10512000DA7038BD04F0400303F0FF00002BD8D143
:105130009379DBB203F0600160294ED0937803F0DD
:10514000100303F0FF01B3B114F0010437D195F857
:105150005C3095F85D1099424BD9591C2B4485F869
:105160005C1093F83B3013712B69D0229A702B6935
:105170000222DA70D5E785F86010937943F02003B6
:1051800093712B6995F839101A791F29D2B2C6D8B4
:10519000194800780028C2D06818013185F8391004
:1051A0000276BCE72A6985F83930C02393702B69F1
:1051B000114A1979012111700222DA70B1E7C02376
:1051C00093702B691A790222DA70AAE70122002370
:1051D00085F85D2085F83B3096E703F0DF03937197
:1051E000AB6E23B185F8380095F8390098472A69E5
:1051F000A4E71471B8E700BF3545FF1F2DE9F0475C
:10520000374FDFF8E0903B68026982B006460093B2
:10521000DDF800800021C825D3789B065BD53B686C
:105220000193019BC8EB03030F2BF5D949B1102B58
:10523000F2D000209070336980229A7002B0BDE8ED
:10524000F087726996F8613013440521187A00F0EE
:1052500055FD726996F861301344012193F812A04C
:10526000504600F04BFD09240021504600F040FD5F
:105270002B46013BFDD10121504600F039FD2B4664
:10528000013BFDD1013CEFD1706996F861100144FA
:105290004FF4C8720C7A4B7B09EBC4011B024968BE
:1052A00003F4E06343F064030B6096F86230034458
:1052B000997CDB7D09EBC1011B02496803F4E063C3
:1052C00043F064030B60013AFDD13269D3789B0649
:1052D0004FF00101A3D4012002B0BDE8F08700BF68
:1052E0006445FF1FCC980000F0B503691222DA7004
:1052F0000269937803F0200385B004460D46002B25
:105300005ED0B42393703C4922690B680093009EE1
:1053100005E00B680193019B9B1B042B42D8D378BB
:1053200003F0200303F0FF00002BF2D094F85D306F
:10533000002B31D04FF0000E4FF0020C04EB0E03A7
:1053400093F83B3013710B680393039F206907E0C8
:105350009B060DD50B680293029BDB1B052B28D8FF
:10536000C378DBB203F0020202F0FF06002AEFD09E
:1053700080F803C02669F378DBB2DF0632462DD40D
:105380009F062BD5DB0731D40EF1010E94F85D306A
:105390005FFA8EFE7345D1D800201DBB002384F830
:1053A0005E3004E09070236980229A70042005B07A
:1053B000F0BD86702369802204209A7005B0F0BD8C
:1053C00003F0FF06FFF71AFF10B9042005B0F0BD87
:1053D000236984F85F60B0229A7094E78023B370E9
:1053E0000420DAE726698023B370D7E7BEF1000F07
:1053F0000CBF02200320F6E76445FF1F0148FFF7BA
:1054000065BE00BFF415FF1F0148FFF75FBE00BF78
:105410006016FF1F0148FFF759BE00BF8815FF1F28
:10542000F8B51E1E03680446CCBF02EB42050025FA
:105430000F469B68D8BF164698477A192368626062
:105440005B690A4A6661934201D12046F8BD204655
:1054500098470028F9D0064A064B516893FBF0F0B4
:10546000884238BF084650602046F8BD71040000ED
:105470003845FF1F40420F0070B40F4C2268531C88
:105480008A4283B0236013DB0C4D0D4A29680191D9
:1054900001992D6800951668009D15604FF47A7289
:1054A0000025891B02FB03F32560B3FBF1F3438066
:1054B00003B070BC704700BF4C45FF1F6445FF1F21
:1054C0005445FF1F2DE9F04F43682D4C83B006462D
:1054D0008946002B4BD100F017FCF36820601BB10C
:1054E0004846B16898478146264B1C680025002C29
:1054F00036D07388A77C61686269632B236898BF84
:10550000A574D3F804808DF804508DF805508DF8FB
:105510000650B9F1000F1CD004F10B030DF1040E7D
:1055200004F10E0C13F801BFBBF1000F0DD093F87E
:1055300003A00AF101000BFB0000BAF1000F04D038
:1055400009FB00F0000C8EF8000063450EF1010E1F
:10555000E8D1204601ABC047A774A468002CC8D18D
:1055600030461921FFF788FF03B0BDE8F08F00F047
:10557000CBFB22687368801A9842AAD3ABE700BFBE
:105580005045FF1F4845FF1F00207047044B002275
:10559000FF204FF0FF31187099605A80DA60704731
:1055A0003845FF1FF0B4047846788278E00000F0B8
:1055B000F80000EB800303EB031303442506C3F359
:1055C00007235FD404F0400505F0FF0704F0200432
:1055D000002D46D104F0FF00002C6CD05533DDB215
:1055E000AB243B46FF2E1CD0002E79D01CB106FB0D
:1055F0000444C4F307241DB106FB0555C5F3072574
:105600001BB106FB0333C3F30723F043C0B200FB17
:105610000000C0F30720044405440344E4B2EDB2A3
:10562000DBB2FF2A18D012FB02F0003218BF0122B1
:1056300002EB102212F0FF0256D01CB102FB044410
:10564000C4F307241DB102FB0555C5F307251BB1A3
:1056500002FB0333C3F307230C704D708B70F0BC57
:10566000704704F0FF075CBB00EBC00400EB440094
:1056700000EBC0000412563BC4F1AB04DDB2E4B24F
:105680003B46AFE704F0400707F0FF05E7B904F039
:10569000200707F0FF04002F36D100EBC00300EB1A
:1056A000430000EBC000C0F30720C0F1AB0555304C
:1056B000EDB2C3B296E7DC43E4B21D46034691E780
:1056C0000024DD43EDB28DE704F0200404F0FF0573
:1056D00094B903F15504E4B2C3F1AB03DBB281E743
:1056E000FF231D461C469CE71546144613460C70C6
:1056F0004D708B70F0BC7047A3F15604E4B20025E6
:10570000C3F15503DBB26DE7D8431C46C3B269E76A
:10571000844641EA000313F003036DD1403A41D3BC
:1057200051F8043B40F8043B51F8043B40F8043B7B
:1057300051F8043B40F8043B51F8043B40F8043B6B
:1057400051F8043B40F8043B51F8043B40F8043B5B
:1057500051F8043B40F8043B51F8043B40F8043B4B
:1057600051F8043B40F8043B51F8043B40F8043B3B
:1057700051F8043B40F8043B51F8043B40F8043B2B
:1057800051F8043B40F8043B51F8043B40F8043B1B
:1057900051F8043B40F8043B51F8043B40F8043B0B
:1057A000403ABDD2303211D351F8043B40F8043BAB
:1057B00051F8043B40F8043B51F8043B40F8043BEB
:1057C00051F8043B40F8043B103AEDD20C3205D3BB
:1057D00051F8043B40F8043B043AF9D2043208D0B3
:1057E000D2071CBF11F8013B00F8013B01D30B8825
:1057F00003806046704700BF082A13D38B078DD003
:1058000010F003038AD0C3F10403D21ADB071CBFD4
:1058100011F8013B00F8013B80D331F8023B20F83E
:10582000023B7BE7043AD9D3013A11F8013B00F877
:10583000013BF9D20B7803704B7843708B788370FF
:1058400060467047374A384913681B06FCD40B681A
:1058500013F08003F8D172B634490A78002A5FD079
:10586000334A3448F0B4344C176806682568D46865
:105870000C303E44143200681268304F35442C44DA
:1058800020440244C2F34E022D4E2E482E4D2F4C82
:1058900042F400423A60376806682D682C4A246852
:1058A0000C303E44006812682A4F35442C44204492
:1058B0000244C2F34E02284E2848294D294C42F496
:1058C00000423A60376806682D68274A24680C3021
:1058D0003E4400681268254F35442C44204402445D
:1058E000C2F34E02224E2348234D244C42F4004280
:1058F0003A60376806682D68214A24680C303E44B7
:105900000068126835442C4420440244C2F34E021D
:105910001C4842F4004202600B7062B6F0BC704753
:1059200062B6704724B0034024B00B405D45FF1FB2
:1059300038B003403CB0034040B003402CB00340BB
:1059400058B003405CB0034060B0034064B0034013
:105950006CB0034030B0034038B00B403CB00B405B
:1059600040B00B4044B00B404CB00B402CB00B404F
:1059700058B00B405CB00B4060B00B4064B00B40C3
:105980006CB00B4030B00B4030B42948294A2A4B48
:105990002A4D6024E121047011701B78284C082BDB
:1059A00030D00A2B2748284937D00C2B0CBF352282
:1059B0005D2212232A60236002600B60234B24497E
:1059C0001B78244ABBB101230B601360224B23498F
:1059D0001B78234A012B26D9042B0FD9082B1ED95B
:1059E000102B94BF862387230B6013601D4B01226D
:1059F0001A7030BC70470B601360E7E784230B60BC
:105A00001360F3E700F58E200F490830212213239D
:105A10002A60236002600B60D0E73922F7E7852314
:105A20000B601360E2E780230B601360DEE700BFCA
:105A30000040074001400740CC16FF1F08B003405C
:105A40000CB0034008B00B400CB00B406045FF1F8A
:105A500020B0034020B00B40CD16FF1F24B0034000
:105A600024B00B405D45FF1F47282FD8334B2DE94D
:105A7000F0411E5CFF2E2BD0314B1B78002B2AD11E
:105A800032062CD472B62F4D2F4C2F4601232660A0
:105A90002B7062B672B623681B060CD43B781BB918
:105AA000F4E72B78002BF1D062B601F053FE72B60A
:105AB00023681806F5D5254B1B6800222A7062B6AC
:105AC000234A107843FA00F0BDE8F08100207047C7
:105AD0000020BDE8F081FFF7B5FE3206D2D572B6E0
